{
  "contractName": "HexEventRegistration",
  "abi": [
    {
      "inputs": [],
      "stateMutability": "nonpayable",
      "type": "constructor"
    },
    {
      "anonymous": false,
      "inputs": [
        {
          "indexed": true,
          "internalType": "address",
          "name": "owner",
          "type": "address"
        },
        {
          "indexed": true,
          "internalType": "address",
          "name": "approved",
          "type": "address"
        },
        {
          "indexed": true,
          "internalType": "uint256",
          "name": "tokenId",
          "type": "uint256"
        }
      ],
      "name": "Approval",
      "type": "event"
    },
    {
      "anonymous": false,
      "inputs": [
        {
          "indexed": true,
          "internalType": "address",
          "name": "owner",
          "type": "address"
        },
        {
          "indexed": true,
          "internalType": "address",
          "name": "operator",
          "type": "address"
        },
        {
          "indexed": false,
          "internalType": "bool",
          "name": "approved",
          "type": "bool"
        }
      ],
      "name": "ApprovalForAll",
      "type": "event"
    },
    {
      "anonymous": false,
      "inputs": [
        {
          "indexed": true,
          "internalType": "uint256",
          "name": "tokenId",
          "type": "uint256"
        },
        {
          "indexed": false,
          "internalType": "address",
          "name": "seller",
          "type": "address"
        },
        {
          "indexed": false,
          "internalType": "string",
          "name": "gmail",
          "type": "string"
        },
        {
          "indexed": false,
          "internalType": "string",
          "name": "name",
          "type": "string"
        },
        {
          "indexed": false,
          "internalType": "string",
          "name": "organisation",
          "type": "string"
        },
        {
          "indexed": false,
          "internalType": "string",
          "name": "designation",
          "type": "string"
        }
      ],
      "name": "RegNftCreatyed",
      "type": "event"
    },
    {
      "anonymous": false,
      "inputs": [
        {
          "indexed": true,
          "internalType": "address",
          "name": "from",
          "type": "address"
        },
        {
          "indexed": true,
          "internalType": "address",
          "name": "to",
          "type": "address"
        },
        {
          "indexed": true,
          "internalType": "uint256",
          "name": "tokenId",
          "type": "uint256"
        }
      ],
      "name": "Transfer",
      "type": "event"
    },
    {
      "inputs": [
        {
          "internalType": "address",
          "name": "to",
          "type": "address"
        },
        {
          "internalType": "uint256",
          "name": "tokenId",
          "type": "uint256"
        }
      ],
      "name": "approve",
      "outputs": [],
      "stateMutability": "nonpayable",
      "type": "function"
    },
    {
      "inputs": [
        {
          "internalType": "address",
          "name": "owner",
          "type": "address"
        }
      ],
      "name": "balanceOf",
      "outputs": [
        {
          "internalType": "uint256",
          "name": "",
          "type": "uint256"
        }
      ],
      "stateMutability": "view",
      "type": "function",
      "constant": true
    },
    {
      "inputs": [
        {
          "internalType": "uint256",
          "name": "tokenId",
          "type": "uint256"
        }
      ],
      "name": "getApproved",
      "outputs": [
        {
          "internalType": "address",
          "name": "",
          "type": "address"
        }
      ],
      "stateMutability": "view",
      "type": "function",
      "constant": true
    },
    {
      "inputs": [
        {
          "internalType": "address",
          "name": "owner",
          "type": "address"
        },
        {
          "internalType": "address",
          "name": "operator",
          "type": "address"
        }
      ],
      "name": "isApprovedForAll",
      "outputs": [
        {
          "internalType": "bool",
          "name": "",
          "type": "bool"
        }
      ],
      "stateMutability": "view",
      "type": "function",
      "constant": true
    },
    {
      "inputs": [],
      "name": "name",
      "outputs": [
        {
          "internalType": "string",
          "name": "",
          "type": "string"
        }
      ],
      "stateMutability": "view",
      "type": "function",
      "constant": true
    },
    {
      "inputs": [
        {
          "internalType": "uint256",
          "name": "tokenId",
          "type": "uint256"
        }
      ],
      "name": "ownerOf",
      "outputs": [
        {
          "internalType": "address",
          "name": "",
          "type": "address"
        }
      ],
      "stateMutability": "view",
      "type": "function",
      "constant": true
    },
    {
      "inputs": [
        {
          "internalType": "address",
          "name": "from",
          "type": "address"
        },
        {
          "internalType": "address",
          "name": "to",
          "type": "address"
        },
        {
          "internalType": "uint256",
          "name": "tokenId",
          "type": "uint256"
        }
      ],
      "name": "safeTransferFrom",
      "outputs": [],
      "stateMutability": "nonpayable",
      "type": "function"
    },
    {
      "inputs": [
        {
          "internalType": "address",
          "name": "from",
          "type": "address"
        },
        {
          "internalType": "address",
          "name": "to",
          "type": "address"
        },
        {
          "internalType": "uint256",
          "name": "tokenId",
          "type": "uint256"
        },
        {
          "internalType": "bytes",
          "name": "data",
          "type": "bytes"
        }
      ],
      "name": "safeTransferFrom",
      "outputs": [],
      "stateMutability": "nonpayable",
      "type": "function"
    },
    {
      "inputs": [
        {
          "internalType": "address",
          "name": "operator",
          "type": "address"
        },
        {
          "internalType": "bool",
          "name": "approved",
          "type": "bool"
        }
      ],
      "name": "setApprovalForAll",
      "outputs": [],
      "stateMutability": "nonpayable",
      "type": "function"
    },
    {
      "inputs": [
        {
          "internalType": "bytes4",
          "name": "interfaceId",
          "type": "bytes4"
        }
      ],
      "name": "supportsInterface",
      "outputs": [
        {
          "internalType": "bool",
          "name": "",
          "type": "bool"
        }
      ],
      "stateMutability": "view",
      "type": "function",
      "constant": true
    },
    {
      "inputs": [],
      "name": "symbol",
      "outputs": [
        {
          "internalType": "string",
          "name": "",
          "type": "string"
        }
      ],
      "stateMutability": "view",
      "type": "function",
      "constant": true
    },
    {
      "inputs": [
        {
          "internalType": "uint256",
          "name": "tokenId",
          "type": "uint256"
        }
      ],
      "name": "tokenURI",
      "outputs": [
        {
          "internalType": "string",
          "name": "",
          "type": "string"
        }
      ],
      "stateMutability": "view",
      "type": "function",
      "constant": true
    },
    {
      "inputs": [
        {
          "internalType": "address",
          "name": "from",
          "type": "address"
        },
        {
          "internalType": "address",
          "name": "to",
          "type": "address"
        },
        {
          "internalType": "uint256",
          "name": "tokenId",
          "type": "uint256"
        }
      ],
      "name": "transferFrom",
      "outputs": [],
      "stateMutability": "nonpayable",
      "type": "function"
    },
    {
      "inputs": [
        {
          "internalType": "string",
          "name": "tokenURI",
          "type": "string"
        },
        {
          "internalType": "string",
          "name": "gmail",
          "type": "string"
        },
        {
          "internalType": "string",
          "name": "name",
          "type": "string"
        },
        {
          "internalType": "string",
          "name": "organisation",
          "type": "string"
        },
        {
          "internalType": "string",
          "name": "designation",
          "type": "string"
        }
      ],
      "name": "createHexRegToken",
      "outputs": [
        {
          "internalType": "uint256",
          "name": "",
          "type": "uint256"
        }
      ],
      "stateMutability": "payable",
      "type": "function",
      "payable": true
    },
    {
      "inputs": [],
      "name": "getParticipentsCount",
      "outputs": [
        {
          "internalType": "uint256",
          "name": "",
          "type": "uint256"
        }
      ],
      "stateMutability": "view",
      "type": "function",
      "constant": true
    }
  ],
  "bytecode": "0x60806040526509184e72a000600a553480156200001b57600080fd5b506040518060400160405280600a81526020017f5245472d6865784e6674000000000000000000000000000000000000000000008152506040518060400160405280600681526020017f6865784e465400000000000000000000000000000000000000000000000000008152508160009080519060200190620000a09291906200010b565b508060019080519060200190620000b99291906200010b565b505050600160078190555033600960006101000a81548173ffffffffffffffffffffffffffffffffffffffff021916908373ffffffffffffffffffffffffffffffffffffffff1602179055506200021f565b8280546200011990620001ea565b90600052602060002090601f0160209004810192826200013d576000855562000189565b82601f106200015857805160ff191683800117855562000189565b8280016001018555821562000189579182015b82811115620001885782518255916020019190600101906200016b565b5b5090506200019891906200019c565b5090565b5b80821115620001b75760008160009055506001016200019d565b5090565b7f4e487b7100000000000000000000000000000000000000000000000000000000600052602260045260246000fd5b600060028204905060018216806200020357607f821691505b602082108103620002195762000218620001bb565b5b50919050565b612c10806200022f6000396000f3fe6080604052600436106100e85760003560e01c8063521969461161008a578063a22cb46511610059578063a22cb4651461030d578063b88d4fde14610336578063c87b56dd1461035f578063e985e9c51461039c576100e8565b806352196946146102385780636352211e1461026857806370a08231146102a557806395d89b41146102e2576100e8565b8063095ea7b3116100c6578063095ea7b31461019257806323b872dd146101bb57806342842e0e146101e457806342b6d6281461020d576100e8565b806301ffc9a7146100ed57806306fdde031461012a578063081812fc14610155575b600080fd5b3480156100f957600080fd5b50610114600480360381019061010f9190611ac8565b6103d9565b6040516101219190611b10565b60405180910390f35b34801561013657600080fd5b5061013f6104bb565b60405161014c9190611bc4565b60405180910390f35b34801561016157600080fd5b5061017c60048036038101906101779190611c1c565b61054d565b6040516101899190611c8a565b60405180910390f35b34801561019e57600080fd5b506101b960048036038101906101b49190611cd1565b610593565b005b3480156101c757600080fd5b506101e260048036038101906101dd9190611d11565b6106aa565b005b3480156101f057600080fd5b5061020b60048036038101906102069190611d11565b61070a565b005b34801561021957600080fd5b5061022261072a565b60405161022f9190611d73565b60405180910390f35b610252600480360381019061024d9190611ec3565b610740565b60405161025f9190611d73565b60405180910390f35b34801561027457600080fd5b5061028f600480360381019061028a9190611c1c565b610788565b60405161029c9190611c8a565b60405180910390f35b3480156102b157600080fd5b506102cc60048036038101906102c79190611fca565b610839565b6040516102d99190611d73565b60405180910390f35b3480156102ee57600080fd5b506102f76108f0565b6040516103049190611bc4565b60405180910390f35b34801561031957600080fd5b50610334600480360381019061032f9190612023565b610982565b005b34801561034257600080fd5b5061035d60048036038101906103589190612104565b610998565b005b34801561036b57600080fd5b5061038660048036038101906103819190611c1c565b6109fa565b6040516103939190611bc4565b60405180910390f35b3480156103a857600080fd5b506103c360048036038101906103be9190612187565b610b0c565b6040516103d09190611b10565b60405180910390f35b60007f80ac58cd000000000000000000000000000000000000000000000000000000007bffffffffffffffffffffffffffffffffffffffffffffffffffffffff1916827bffffffffffffffffffffffffffffffffffffffffffffffffffffffff191614806104a457507f5b5e139f000000000000000000000000000000000000000000000000000000007bffffffffffffffffffffffffffffffffffffffffffffffffffffffff1916827bffffffffffffffffffffffffffffffffffffffffffffffffffffffff1916145b806104b457506104b382610ba0565b5b9050919050565b6060600080546104ca906121f6565b80601f01602080910402602001604051908101604052809291908181526020018280546104f6906121f6565b80156105435780601f1061051857610100808354040283529160200191610543565b820191906000526020600020905b81548152906001019060200180831161052657829003601f168201915b5050505050905090565b600061055882610c0a565b6004600083815260200190815260200160002060009054906101000a900473ffffffffffffffffffffffffffffffffffffffff169050919050565b600061059e82610788565b90508073ffffffffffffffffffffffffffffffffffffffff168373ffffffffffffffffffffffffffffffffffffffff160361060e576040517f08c379a000000000000000000000000000000000000000000000000000000000815260040161060590612299565b60405180910390fd5b8073ffffffffffffffffffffffffffffffffffffffff1661062d610c55565b73ffffffffffffffffffffffffffffffffffffffff16148061065c575061065b81610656610c55565b610b0c565b5b61069b576040517f08c379a00000000000000000000000000000000000000000000000000000000081526004016106929061232b565b60405180910390fd5b6106a58383610c5d565b505050565b6106bb6106b5610c55565b82610d16565b6106fa576040517f08c379a00000000000000000000000000000000000000000000000000000000081526004016106f1906123bd565b60405180910390fd5b610705838383610dab565b505050565b61072583838360405180602001604052806000815250610998565b505050565b6000806107376008611011565b90508091505090565b600061074c600861101f565b60006107586008611011565b90506107643382611035565b61076e818861120e565b61077b8187878787611282565b8091505095945050505050565b6000806002600084815260200190815260200160002060009054906101000a900473ffffffffffffffffffffffffffffffffffffffff169050600073ffffffffffffffffffffffffffffffffffffffff168173ffffffffffffffffffffffffffffffffffffffff1603610830576040517f08c379a000000000000000000000000000000000000000000000000000000000815260040161082790612429565b60405180910390fd5b80915050919050565b60008073ffffffffffffffffffffffffffffffffffffffff168273ffffffffffffffffffffffffffffffffffffffff16036108a9576040517f08c379a00000000000000000000000000000000000000000000000000000000081526004016108a0906124bb565b60405180910390fd5b600360008373ffffffffffffffffffffffffffffffffffffffff1673ffffffffffffffffffffffffffffffffffffffff168152602001908152602001600020549050919050565b6060600180546108ff906121f6565b80601f016020809104026020016040519081016040528092919081815260200182805461092b906121f6565b80156109785780601f1061094d57610100808354040283529160200191610978565b820191906000526020600020905b81548152906001019060200180831161095b57829003601f168201915b5050505050905090565b61099461098d610c55565b83836113f2565b5050565b6109a96109a3610c55565b83610d16565b6109e8576040517f08c379a00000000000000000000000000000000000000000000000000000000081526004016109df906123bd565b60405180910390fd5b6109f48484848461155e565b50505050565b6060610a0582610c0a565b6000600660008481526020019081526020016000208054610a25906121f6565b80601f0160208091040260200160405190810160405280929190818152602001828054610a51906121f6565b8015610a9e5780601f10610a7357610100808354040283529160200191610a9e565b820191906000526020600020905b815481529060010190602001808311610a8157829003601f168201915b505050505090506000610aaf6115ba565b90506000815103610ac4578192505050610b07565b600082511115610af9578082604051602001610ae1929190612517565b60405160208183030381529060405292505050610b07565b610b02846115d1565b925050505b919050565b6000600560008473ffffffffffffffffffffffffffffffffffffffff1673ffffffffffffffffffffffffffffffffffffffff16815260200190815260200160002060008373ffffffffffffffffffffffffffffffffffffffff1673ffffffffffffffffffffffffffffffffffffffff16815260200190815260200160002060009054906101000a900460ff16905092915050565b60007f01ffc9a7000000000000000000000000000000000000000000000000000000007bffffffffffffffffffffffffffffffffffffffffffffffffffffffff1916827bffffffffffffffffffffffffffffffffffffffffffffffffffffffff1916149050919050565b610c1381611639565b610c52576040517f08c379a0000000000000000000000000000000000000000000000000000000008152600401610c4990612429565b60405180910390fd5b50565b600033905090565b816004600083815260200190815260200160002060006101000a81548173ffffffffffffffffffffffffffffffffffffffff021916908373ffffffffffffffffffffffffffffffffffffffff160217905550808273ffffffffffffffffffffffffffffffffffffffff16610cd083610788565b73ffffffffffffffffffffffffffffffffffffffff167f8c5be1e5ebec7d5bd14f71427d1e84f3dd0314c0f7b2291e5b200ac8c7c3b92560405160405180910390a45050565b600080610d2283610788565b90508073ffffffffffffffffffffffffffffffffffffffff168473ffffffffffffffffffffffffffffffffffffffff161480610d645750610d638185610b0c565b5b80610da257508373ffffffffffffffffffffffffffffffffffffffff16610d8a8461054d565b73ffffffffffffffffffffffffffffffffffffffff16145b91505092915050565b8273ffffffffffffffffffffffffffffffffffffffff16610dcb82610788565b73ffffffffffffffffffffffffffffffffffffffff1614610e21576040517f08c379a0000000000000000000000000000000000000000000000000000000008152600401610e18906125ad565b60405180910390fd5b600073ffffffffffffffffffffffffffffffffffffffff168273ffffffffffffffffffffffffffffffffffffffff1603610e90576040517f08c379a0000000000000000000000000000000000000000000000000000000008152600401610e879061263f565b60405180910390fd5b610e9b8383836116a5565b610ea6600082610c5d565b6001600360008573ffffffffffffffffffffffffffffffffffffffff1673ffffffffffffffffffffffffffffffffffffffff1681526020019081526020016000206000828254610ef6919061268e565b925050819055506001600360008473ffffffffffffffffffffffffffffffffffffffff1673ffffffffffffffffffffffffffffffffffffffff1681526020019081526020016000206000828254610f4d91906126c2565b92505081905550816002600083815260200190815260200160002060006101000a81548173ffffffffffffffffffffffffffffffffffffffff021916908373ffffffffffffffffffffffffffffffffffffffff160217905550808273ffffffffffffffffffffffffffffffffffffffff168473ffffffffffffffffffffffffffffffffffffffff167fddf252ad1be2c89b69c2b068fc378daa952ba7f163c4a11628f55a4df523b3ef60405160405180910390a461100c8383836116aa565b505050565b600081600001549050919050565b6001816000016000828254019250508190555050565b600073ffffffffffffffffffffffffffffffffffffffff168273ffffffffffffffffffffffffffffffffffffffff16036110a4576040517f08c379a000000000000000000000000000000000000000000000000000000000815260040161109b90612764565b60405180910390fd5b6110ad81611639565b156110ed576040517f08c379a00000000000000000000000000000000000000000000000000000000081526004016110e4906127d0565b60405180910390fd5b6110f9600083836116a5565b6001600360008473ffffffffffffffffffffffffffffffffffffffff1673ffffffffffffffffffffffffffffffffffffffff168152602001908152602001600020600082825461114991906126c2565b92505081905550816002600083815260200190815260200160002060006101000a81548173ffffffffffffffffffffffffffffffffffffffff021916908373ffffffffffffffffffffffffffffffffffffffff160217905550808273ffffffffffffffffffffffffffffffffffffffff16600073ffffffffffffffffffffffffffffffffffffffff167fddf252ad1be2c89b69c2b068fc378daa952ba7f163c4a11628f55a4df523b3ef60405160405180910390a461120a600083836116aa565b5050565b61121782611639565b611256576040517f08c379a000000000000000000000000000000000000000000000000000000000815260040161124d90612862565b60405180910390fd5b8060066000848152602001908152602001600020908051906020019061127d9291906119b9565b505050565b6040518060c001604052808681526020013373ffffffffffffffffffffffffffffffffffffffff16815260200185815260200184815260200183815260200182815250600b60008781526020019081526020016000206000820151816000015560208201518160010160006101000a81548173ffffffffffffffffffffffffffffffffffffffff021916908373ffffffffffffffffffffffffffffffffffffffff16021790555060408201518160020190805190602001906113459291906119b9565b5060608201518160030190805190602001906113629291906119b9565b50608082015181600401908051906020019061137f9291906119b9565b5060a082015181600501908051906020019061139c9291906119b9565b509050506113ab333087610dab565b847fe1f35c521bf12c593db8555d64c52ac8cd9b39e04654cad2cb4f6e5d6eb1d75433868686866040516113e3959493929190612882565b60405180910390a25050505050565b8173ffffffffffffffffffffffffffffffffffffffff168373ffffffffffffffffffffffffffffffffffffffff1603611460576040517f08c379a00000000000000000000000000000000000000000000000000000000081526004016114579061293d565b60405180910390fd5b80600560008573ffffffffffffffffffffffffffffffffffffffff1673ffffffffffffffffffffffffffffffffffffffff16815260200190815260200160002060008473ffffffffffffffffffffffffffffffffffffffff1673ffffffffffffffffffffffffffffffffffffffff16815260200190815260200160002060006101000a81548160ff0219169083151502179055508173ffffffffffffffffffffffffffffffffffffffff168373ffffffffffffffffffffffffffffffffffffffff167f17307eab39ab6107e8899845ad3d59bd9653f200f220920489ca2b5937696c31836040516115519190611b10565b60405180910390a3505050565b611569848484610dab565b611575848484846116af565b6115b4576040517f08c379a00000000000000000000000000000000000000000000000000000000081526004016115ab906129cf565b60405180910390fd5b50505050565b606060405180602001604052806000815250905090565b60606115dc82610c0a565b60006115e66115ba565b905060008151116116065760405180602001604052806000815250611631565b8061161084611836565b604051602001611621929190612517565b6040516020818303038152906040525b915050919050565b60008073ffffffffffffffffffffffffffffffffffffffff166002600084815260200190815260200160002060009054906101000a900473ffffffffffffffffffffffffffffffffffffffff1673ffffffffffffffffffffffffffffffffffffffff1614159050919050565b505050565b505050565b60006116d08473ffffffffffffffffffffffffffffffffffffffff16611996565b15611829578373ffffffffffffffffffffffffffffffffffffffff1663150b7a026116f9610c55565b8786866040518563ffffffff1660e01b815260040161171b9493929190612a44565b6020604051808303816000875af192505050801561175757506040513d601f19601f820116820180604052508101906117549190612aa5565b60015b6117d9573d8060008114611787576040519150601f19603f3d011682016040523d82523d6000602084013e61178c565b606091505b5060008151036117d1576040517f08c379a00000000000000000000000000000000000000000000000000000000081526004016117c8906129cf565b60405180910390fd5b805181602001fd5b63150b7a0260e01b7bffffffffffffffffffffffffffffffffffffffffffffffffffffffff1916817bffffffffffffffffffffffffffffffffffffffffffffffffffffffff19161491505061182e565b600190505b949350505050565b60606000820361187d576040518060400160405280600181526020017f30000000000000000000000000000000000000000000000000000000000000008152509050611991565b600082905060005b600082146118af57808061189890612ad2565b915050600a826118a89190612b49565b9150611885565b60008167ffffffffffffffff8111156118cb576118ca611d98565b5b6040519080825280601f01601f1916602001820160405280156118fd5781602001600182028036833780820191505090505b5090505b6000851461198a57600182611916919061268e565b9150600a856119259190612b7a565b603061193191906126c2565b60f81b81838151811061194757611946612bab565b5b60200101907effffffffffffffffffffffffffffffffffffffffffffffffffffffffffffff1916908160001a905350600a856119839190612b49565b9450611901565b8093505050505b919050565b6000808273ffffffffffffffffffffffffffffffffffffffff163b119050919050565b8280546119c5906121f6565b90600052602060002090601f0160209004810192826119e75760008555611a2e565b82601f10611a0057805160ff1916838001178555611a2e565b82800160010185558215611a2e579182015b82811115611a2d578251825591602001919060010190611a12565b5b509050611a3b9190611a3f565b5090565b5b80821115611a58576000816000905550600101611a40565b5090565b6000604051905090565b600080fd5b600080fd5b60007fffffffff0000000000000000000000000000000000000000000000000000000082169050919050565b611aa581611a70565b8114611ab057600080fd5b50565b600081359050611ac281611a9c565b92915050565b600060208284031215611ade57611add611a66565b5b6000611aec84828501611ab3565b91505092915050565b60008115159050919050565b611b0a81611af5565b82525050565b6000602082019050611b256000830184611b01565b92915050565b600081519050919050565b600082825260208201905092915050565b60005b83811015611b65578082015181840152602081019050611b4a565b83811115611b74576000848401525b50505050565b6000601f19601f8301169050919050565b6000611b9682611b2b565b611ba08185611b36565b9350611bb0818560208601611b47565b611bb981611b7a565b840191505092915050565b60006020820190508181036000830152611bde8184611b8b565b905092915050565b6000819050919050565b611bf981611be6565b8114611c0457600080fd5b50565b600081359050611c1681611bf0565b92915050565b600060208284031215611c3257611c31611a66565b5b6000611c4084828501611c07565b91505092915050565b600073ffffffffffffffffffffffffffffffffffffffff82169050919050565b6000611c7482611c49565b9050919050565b611c8481611c69565b82525050565b6000602082019050611c9f6000830184611c7b565b92915050565b611cae81611c69565b8114611cb957600080fd5b50565b600081359050611ccb81611ca5565b92915050565b60008060408385031215611ce857611ce7611a66565b5b6000611cf685828601611cbc565b9250506020611d0785828601611c07565b9150509250929050565b600080600060608486031215611d2a57611d29611a66565b5b6000611d3886828701611cbc565b9350506020611d4986828701611cbc565b9250506040611d5a86828701611c07565b9150509250925092565b611d6d81611be6565b82525050565b6000602082019050611d886000830184611d64565b92915050565b600080fd5b600080fd5b7f4e487b7100000000000000000000000000000000000000000000000000000000600052604160045260246000fd5b611dd082611b7a565b810181811067ffffffffffffffff82111715611def57611dee611d98565b5b80604052505050565b6000611e02611a5c565b9050611e0e8282611dc7565b919050565b600067ffffffffffffffff821115611e2e57611e2d611d98565b5b611e3782611b7a565b9050602081019050919050565b82818337600083830152505050565b6000611e66611e6184611e13565b611df8565b905082815260208101848484011115611e8257611e81611d93565b5b611e8d848285611e44565b509392505050565b600082601f830112611eaa57611ea9611d8e565b5b8135611eba848260208601611e53565b91505092915050565b600080600080600060a08688031215611edf57611ede611a66565b5b600086013567ffffffffffffffff811115611efd57611efc611a6b565b5b611f0988828901611e95565b955050602086013567ffffffffffffffff811115611f2a57611f29611a6b565b5b611f3688828901611e95565b945050604086013567ffffffffffffffff811115611f5757611f56611a6b565b5b611f6388828901611e95565b935050606086013567ffffffffffffffff811115611f8457611f83611a6b565b5b611f9088828901611e95565b925050608086013567ffffffffffffffff811115611fb157611fb0611a6b565b5b611fbd88828901611e95565b9150509295509295909350565b600060208284031215611fe057611fdf611a66565b5b6000611fee84828501611cbc565b91505092915050565b61200081611af5565b811461200b57600080fd5b50565b60008135905061201d81611ff7565b92915050565b6000806040838503121561203a57612039611a66565b5b600061204885828601611cbc565b92505060206120598582860161200e565b9150509250929050565b600067ffffffffffffffff82111561207e5761207d611d98565b5b61208782611b7a565b9050602081019050919050565b60006120a76120a284612063565b611df8565b9050828152602081018484840111156120c3576120c2611d93565b5b6120ce848285611e44565b509392505050565b600082601f8301126120eb576120ea611d8e565b5b81356120fb848260208601612094565b91505092915050565b6000806000806080858703121561211e5761211d611a66565b5b600061212c87828801611cbc565b945050602061213d87828801611cbc565b935050604061214e87828801611c07565b925050606085013567ffffffffffffffff81111561216f5761216e611a6b565b5b61217b878288016120d6565b91505092959194509250565b6000806040838503121561219e5761219d611a66565b5b60006121ac85828601611cbc565b92505060206121bd85828601611cbc565b9150509250929050565b7f4e487b7100000000000000000000000000000000000000000000000000000000600052602260045260246000fd5b6000600282049050600182168061220e57607f821691505b602082108103612221576122206121c7565b5b50919050565b7f4552433732313a20617070726f76616c20746f2063757272656e74206f776e6560008201527f7200000000000000000000000000000000000000000000000000000000000000602082015250565b6000612283602183611b36565b915061228e82612227565b604082019050919050565b600060208201905081810360008301526122b281612276565b9050919050565b7f4552433732313a20617070726f76652063616c6c6572206973206e6f7420746f60008201527f6b656e206f776e6572206e6f7220617070726f76656420666f7220616c6c0000602082015250565b6000612315603e83611b36565b9150612320826122b9565b604082019050919050565b6000602082019050818103600083015261234481612308565b9050919050565b7f4552433732313a2063616c6c6572206973206e6f7420746f6b656e206f776e6560008201527f72206e6f7220617070726f766564000000000000000000000000000000000000602082015250565b60006123a7602e83611b36565b91506123b28261234b565b604082019050919050565b600060208201905081810360008301526123d68161239a565b9050919050565b7f4552433732313a20696e76616c696420746f6b656e2049440000000000000000600082015250565b6000612413601883611b36565b915061241e826123dd565b602082019050919050565b6000602082019050818103600083015261244281612406565b9050919050565b7f4552433732313a2061646472657373207a65726f206973206e6f74206120766160008201527f6c6964206f776e65720000000000000000000000000000000000000000000000602082015250565b60006124a5602983611b36565b91506124b082612449565b604082019050919050565b600060208201905081810360008301526124d481612498565b9050919050565b600081905092915050565b60006124f182611b2b565b6124fb81856124db565b935061250b818560208601611b47565b80840191505092915050565b600061252382856124e6565b915061252f82846124e6565b91508190509392505050565b7f4552433732313a207472616e736665722066726f6d20696e636f72726563742060008201527f6f776e6572000000000000000000000000000000000000000000000000000000602082015250565b6000612597602583611b36565b91506125a28261253b565b604082019050919050565b600060208201905081810360008301526125c68161258a565b9050919050565b7f4552433732313a207472616e7366657220746f20746865207a65726f2061646460008201527f7265737300000000000000000000000000000000000000000000000000000000602082015250565b6000612629602483611b36565b9150612634826125cd565b604082019050919050565b600060208201905081810360008301526126588161261c565b9050919050565b7f4e487b7100000000000000000000000000000000000000000000000000000000600052601160045260246000fd5b600061269982611be6565b91506126a483611be6565b9250828210156126b7576126b661265f565b5b828203905092915050565b60006126cd82611be6565b91506126d883611be6565b9250827fffffffffffffffffffffffffffffffffffffffffffffffffffffffffffffffff0382111561270d5761270c61265f565b5b828201905092915050565b7f4552433732313a206d696e7420746f20746865207a65726f2061646472657373600082015250565b600061274e602083611b36565b915061275982612718565b602082019050919050565b6000602082019050818103600083015261277d81612741565b9050919050565b7f4552433732313a20746f6b656e20616c7265616479206d696e74656400000000600082015250565b60006127ba601c83611b36565b91506127c582612784565b602082019050919050565b600060208201905081810360008301526127e9816127ad565b9050919050565b7f45524337323155524953746f726167653a2055524920736574206f66206e6f6e60008201527f6578697374656e7420746f6b656e000000000000000000000000000000000000602082015250565b600061284c602e83611b36565b9150612857826127f0565b604082019050919050565b6000602082019050818103600083015261287b8161283f565b9050919050565b600060a0820190506128976000830188611c7b565b81810360208301526128a98187611b8b565b905081810360408301526128bd8186611b8b565b905081810360608301526128d18185611b8b565b905081810360808301526128e58184611b8b565b90509695505050505050565b7f4552433732313a20617070726f766520746f2063616c6c657200000000000000600082015250565b6000612927601983611b36565b9150612932826128f1565b602082019050919050565b600060208201905081810360008301526129568161291a565b9050919050565b7f4552433732313a207472616e7366657220746f206e6f6e20455243373231526560008201527f63656976657220696d706c656d656e7465720000000000000000000000000000602082015250565b60006129b9603283611b36565b91506129c48261295d565b604082019050919050565b600060208201905081810360008301526129e8816129ac565b9050919050565b600081519050919050565b600082825260208201905092915050565b6000612a16826129ef565b612a2081856129fa565b9350612a30818560208601611b47565b612a3981611b7a565b840191505092915050565b6000608082019050612a596000830187611c7b565b612a666020830186611c7b565b612a736040830185611d64565b8181036060830152612a858184612a0b565b905095945050505050565b600081519050612a9f81611a9c565b92915050565b600060208284031215612abb57612aba611a66565b5b6000612ac984828501612a90565b91505092915050565b6000612add82611be6565b91507fffffffffffffffffffffffffffffffffffffffffffffffffffffffffffffffff8203612b0f57612b0e61265f565b5b600182019050919050565b7f4e487b7100000000000000000000000000000000000000000000000000000000600052601260045260246000fd5b6000612b5482611be6565b9150612b5f83611be6565b925082612b6f57612b6e612b1a565b5b828204905092915050565b6000612b8582611be6565b9150612b9083611be6565b925082612ba057612b9f612b1a565b5b828206905092915050565b7f4e487b7100000000000000000000000000000000000000000000000000000000600052603260045260246000fdfea264697066735822122068bf92d7faf2830d553a64a2a67824e0cdab4d7febbf36592997e6b38bf722a964736f6c634300080d0033",
  "immutableReferences": {},
  "source": "// SPDX-License-Identifier: GPL-3.0\n\npragma solidity >=0.7.0 <0.9.0;\n\nimport '@openzeppelin/contracts/utils/Counters.sol';\nimport '@openzeppelin/contracts/security/ReentrancyGuard.sol';\nimport '@openzeppelin/contracts/token/ERC721/ERC721.sol';\nimport '@openzeppelin/contracts/token/ERC721/extensions/ERC721URIStorage.sol';\n\n\ncontract HexEventRegistration is  ERC721URIStorage,ReentrancyGuard  {\n      using Counters for Counters.Counter;\n      Counters.Counter private _tokenIds;\n      //Counters.Counter private _itemsSold;\n\n        address payable owner;\n        uint256 listingPrice = 0.00001 ether;\n\n        struct RegNft {\n            uint256 tokenId;\n            address payable seller;\n            string gmail;\n            string name;\n            string organisation;\n            string designation;\n        }\n\n        mapping(uint256 => RegNft) private idToRegNft;\n\n        event RegNftCreatyed(\n            uint256 indexed tokenId,\n            address seller,\n            string gmail,\n            string name,\n            string organisation,\n            string designation\n        );\n\n        // REG Mayank - give correct Token name\n        constructor() ERC721('REG-hexNft', 'hexNFT') {\n            owner = payable(msg.sender);\n        }\n\n        // REG - Mayank\n        /* Mints a token and lists it in the marketplace */\n        function createHexRegToken(string memory tokenURI,string memory gmail,string memory name,string memory organisation,string memory designation)\n            public\n            payable\n            returns (uint256)\n        {\n            _tokenIds.increment();\n            uint256 newTokenId = _tokenIds.current();\n\n            _mint(msg.sender, newTokenId);\n            _setTokenURI(newTokenId, tokenURI);\n            createHexRegNft(newTokenId,gmail,name,organisation,designation);\n            return newTokenId;\n        }\n\n        // REG Vishal\n        function createHexRegNft(uint256 tokenId,string memory gmail,string memory name,string memory organisation,string memory designation) private {\n            // require(price > 0, 'Price must be at least 1 wei');\n            // require(msg.value == listingPrice, 'Price must be equal to listing price');\n\n            idToRegNft[tokenId] = RegNft(\n            tokenId,\n            payable(msg.sender),\n            // payable(address(this)),\n            gmail,\n            name,\n            organisation,\n            designation\n            );\n\n            _transfer(msg.sender, address(this), tokenId);\n            emit RegNftCreatyed(tokenId, msg.sender,gmail,name,organisation,designation);\n        }\n\n        function getParticipentsCount() public view returns (uint256){\n            uint256 itemCount = _tokenIds.current();\n            return itemCount;\n        }\n\n}",
  "sourcePath": "/home/vishalv/Desktop/hex-webinar/contracts/ethereum/HexEventRegistration.sol",
  "compiler": {
    "name": "solc",
    "version": "0.8.13+commit.abaa5c0e.Emscripten.clang"
  },
  "schemaVersion": "3.4.9",
  "updatedAt": "2022-09-20T06:23:26.307Z",
  "networkType": "ethereum",
  "devdoc": {
    "kind": "dev",
    "methods": {
      "approve(address,uint256)": {
        "details": "See {IERC721-approve}."
      },
      "balanceOf(address)": {
        "details": "See {IERC721-balanceOf}."
      },
      "getApproved(uint256)": {
        "details": "See {IERC721-getApproved}."
      },
      "isApprovedForAll(address,address)": {
        "details": "See {IERC721-isApprovedForAll}."
      },
      "name()": {
        "details": "See {IERC721Metadata-name}."
      },
      "ownerOf(uint256)": {
        "details": "See {IERC721-ownerOf}."
      },
      "safeTransferFrom(address,address,uint256)": {
        "details": "See {IERC721-safeTransferFrom}."
      },
      "safeTransferFrom(address,address,uint256,bytes)": {
        "details": "See {IERC721-safeTransferFrom}."
      },
      "setApprovalForAll(address,bool)": {
        "details": "See {IERC721-setApprovalForAll}."
      },
      "supportsInterface(bytes4)": {
        "details": "See {IERC165-supportsInterface}."
      },
      "symbol()": {
        "details": "See {IERC721Metadata-symbol}."
      },
      "tokenURI(uint256)": {
        "details": "See {IERC721Metadata-tokenURI}."
      },
      "transferFrom(address,address,uint256)": {
        "details": "See {IERC721-transferFrom}."
      }
    },
    "version": 1
  },
  "userdoc": {
    "kind": "user",
    "methods": {},
    "version": 1
  }
}